:020000040000FA
:020000000528D1
:040002000034003492
:06000A0083160313003011
:100010008800860083120313860188015420FF3074
:1000200086003C20003086003C200F2883120313FA
:10003000C530A000A00B1A28080083120313A430B7
:10004000A100A10B21280800831203130A30A2008B
:100050001D20A20B28280800831203136430A3007C
:100060001D20A30B30280800831203136430A40062
:100070002C20A40B38280800831203133230A5006B
:100080002C20A50B40280800831203130A30A60079
:100090003420A60B48280800831203133C30A70025
:1000A0003420A70B50280800831203130A30A40041
:0800B0002C20A40B58280800C5
:02400E00723FFF
:00000001FF
